:1000000008C4000037C4000035C4000033C4000039
:1000100031C400002FC400002DC400002BC4000018
:1000200029C4000027C4000025C4000023C4000028
:1000300021C400001FC400001DC400001BC4000038
:1000400019C4000017C4000069C6000013C40000F2
:1000500011C400000FC400000DC400000BC4000058
:1000600009C400000C94A91C05C4000003C40000CE
:1000700001C400000C94DF1BFDC30000FBC30000A3
:10008000F9C30000F7C30000F5C30000F3C300008C
:100090000C94E51CEFC30000EDC30000EBC30000AF
:1000A000E9C30000E7C30000E5C30000E3C30000AC
:1000B000E1C30000DFC30000DDC30000DBC30000BC
:1000C000D9C30000D7C30000D5C30000D3C30000CC
:1000D000D1C30000CFC30000CDC30000CBC30000DC
:1000E000C9C30000E104E904F104F90401050905AC
:1000F0001105190524052C0534053C0544054C055E
:1001000054055C05EAFFEAFFEAFFEBFFEBFFEBFFBC
:10011000ECFFECFFECFFEDFFEDFFEDFFEEFFEEFF80
:10012000EEFFEFFFEFFFEFFFF0FFF0FFF0FFF1FF5B
:10013000F1FFF1FFF2FFF2FFF2FFF3FFF3FFF4FF35
:10014000F4FFF4FFF5FFF5FFF5FFF6FFF6FFF6FF0E
:10015000F7FFF7FFF7FFF8FFF8FFF8FFF9FFF9FFE8
:10016000F9FFFAFFFAFFFBFFFBFFFBFFFCFFFCFFC1
:10017000FCFFFDFFFDFFFDFFFEFFFEFFFFFFFFFF9A
:10018000FFFF00000000000001000100010002006C
:100190000200030003000300040004000400050043
:1001A000050005000600060007000700070008001C
:1001B00008000800090009000A000A000A000B00F4
:1001C0000B000B000C000C000D000D000D000E00CC
:1001D0000E000F000F000F001000100010001100A3
:1001E000110012001200120013001300140014007A
:1001F0001400150015001500160016001700170052
:100200001700180018001900190019001A001A0028
:100210001B001B001B001C001C001D001D001D00FE
:100220001E001E001F001F001F00200020002100D4
:1002300021002200220022002300230024002400A9
:100240002400250025002600260026002700270080
:10025000280028002900290029002A002A002B0054
:100260002B002B002C002C002D002D002E002E002A
:100270002E002F002F0030003000310031003100FF
:1002800032003200330033003400340034003500D3
:1002900035003600360037003700380038003800A7
:1002A000390039003A003A003B003B003C003C007A
:1002B0003C003D003D003E003E003F003F0040004E
:1002C0004000400041004100420042004300430022
:1002D00044004400450045004600460046004700F3
:1002E000470048004800490049004A004A004B00C6
:1002F0004B004C004C004C004D004D004E004E0099
:100300004F004F0050005000510051005200520069
:100310005300530054005400550055005600560039
:1003200057005700570058005800590059005A000C
:100330005A005B005B005C005C005D005D005E00DD
:100340005E005F005F0060006000610061006200AD
:10035000620063006300640064006500650066007D
:1003600066006700670068006800690069006A004D
:100370006B006B006C006C006D006D006E006E0019
:100380006F006F00700070007100710072007200E9
:1003900073007300740074007500760076007700B7
:1003A000770078007800790079007A007A007B0085
:1003B0007B007C007D007D007E007E007F007F0052
:1003C000800080008100810082008300830084001F
:1003D00084008500850086008600870088008800EC
:1003E000890089008A008A008B008C008C008D00B7
:1003F0008D008E008E008F00900090009100910083
:10040000920092009300940094009500950096004D
:100410009700970098009800990099009A009B0017
:100420009B009C009C009D009E009E009F009F00E2
:10043000A000A100A100A200A200A300A400A400AB
:10044000A500A500A600A700A700A800A900A90074
:10045000AA00AA00AB00AC00AC00AD00AE00AE003C
:10046000AF00EBFFEBFFEBFFEBFFECFFECFFECFF74
:10047000ECFFEDFFEDFFEDFFEDFFEDFFEEFFEEFF1B
:10048000EEFFEEFFEFFFEFFFEFFFEFFFF0FFF0FFFC
:10049000F0FFF0FFF1FFF1FFF1FFF1FFF2FFF2FFDC
:1004A000F2FFF2FFF3FFF3FFF3FFF3FFF4FFF4FFBC
:1004B000F4FFF4FFF4FFF5FFF5FFF5FFF5FFF6FF9E
:1004C000F6FFF6FFF6FFF7FFF7FFF7FFF7FFF8FF7E
:1004D000F8FFF8FFF8FFF9FFF9FFF9FFF9FFFAFF5E
:1004E000FAFFFAFFFAFFFBFFFBFFFBFFFBFFFCFF3E
:1004F000FCFFFCFFFCFFFDFFFDFFFDFFFDFFFEFF1E
:10050000FEFFFEFFFEFFFFFFFFFFFFFFFFFF0000FC
:1005100000000000000001000100010001000200D5
:1005200002000200020003000300030003000400B5
:100530000400040004000500050005000500060095
:100540000600060006000700070007000700080075
:1005500008000800080009000900090009000A0055
:100560000A000A000A000B000B000B000B000C0035
:100570000C000C000C000D000D000D000D000E0015
:100580000E000E000E000F000F000F000F001000F5
:1005900010001000110011001100110012001200D3
:1005A00012001200130013001300130014001400B3
:1005B0001400140015001500150015001600160093
:1005C0001600160017001700170018001800180072
:1005D000180019001900190019001A001A001A0051
:1005E0001A001B001B001B001B001C001C001C0031
:1005F0001C001D001D001D001E001E001E001E0010
:100600001F001F001F001F002000200020002000EE
:1006100021002100210021002200220022002300CD
:1006200023002300230024002400240024002500AC
:10063000250025002500260026002600270027008B
:10064000270027002800280028002800290029006A
:10065000290029002A002A002A002B002B002B0049
:100660002B002C002C002C002C002D002D002D0028
:100670002E002E002E002E002F002F002F002F0006
:1006800030003000300030003100310031003200E5
:1006900032003200320033003300330033003400C4
:1006A00034003400350035003500350036003600A2
:1006B0003600370037003700370038003800380080
:1006C00038003900390039003A003A003A003A005F
:1006D0003B003B003B003B003C003C003C003D003D
:1006E0003D003D003D003E003E003E003F003F001B
:1006F0003F003F00400040004000400041004100FA
:1007000041004200420042004200430043004300D7
:1007100044004400440044004500450045004500B5
:100720004600460046004700470047004700480093
:100730004800480049004900490049004A004A0071
:100740004A004B004B004B004B004C004C004C004F
:100750004D004D004D004D004E004E004E004F002C
:100760004F004F004F00500050005000510051000A
:1007700051005100520052005200530053005300E8
:1007800053005400540054005500550055005500C6
:1007900056005600560057005700570057005800A3
:1007A0005800580059005900590059005A005A0081
:1007B0005A006164633161646330696F34696F3317
:1007C000696F32696F31696F3076616C7565636F1F
:1007D0006E66696766616C73657472756561646382
:1007E0003161646330696F34696F33696F32696F87
:1007F00031696F3076616C7565636F6E66696769C4
:100800006F676574736574667265654D656D221CEE
:10081000271C11241FBECFEFD1E2DEBFCDBF00E009
:100820000CBF12E0A0E0B2E0EAE8FDE300E00BBF9D
:1008300002C007900D92AC33B107D9F724E0ACE3C6
:10084000B2E001C01D92A138B207E1F714E0C8E0A0
:10085000D4E000E006C021970109802FFE010E942C
:10086000501DC730D10780E00807A9F70E94D81BA8
:100870000C94B41EC5CBEF92FF920F931F93CF93AE
:10088000DF937C01EC018C0100581E4FCE010E94C9
:10089000851C6896C017D107C9F7D701A058BE4F6D
:1008A00080E1E6E0F2E001900D928A95E1F7D70150
:1008B000A057BE4F80E1E6E1F2E001900D928A95EB
:1008C000E1F7D701A056BE4F80E1E6E1F2E00190EA
:1008D0000D928A95E1F780EC80937C008DEA8093FD
:1008E0007A0085E080937B00F701E055FE4F10828F
:1008F00089E08093810084E080936F0081E393E23C
:1009000090938900809388008FEF80937E0080937E
:100910007D00DF91CF911F910F91FF90EF9008958F
:10092000603158F470E0660F771F860F971FFC0147
:10093000EF54FE4F8081918108958FEF9FEF0895CE
:10094000603981E0780714F460E971E06F3383E087
:10095000780714F06EE373E0FB01EE0FFF1FEC511C
:10096000F240859194910895683582E0780714F4F7
:1009700068E572E0611584E0780714F06FEF73E0CA
:10098000FB01EE0FFF1FEE54F04085919491089506
:10099000CF92DF92EF92FF920F931F93CF93DF934B
:1009A000EC01FC01E055FE4F808190E08031910523
:1009B00008F08DC0FC018827EE58FF4F8F4F0C9434
:1009C000501DE0907800F090790081EC80937C00DD
:1009D00080C0E0907800F090790082EC80937C00F9
:1009E00078C0E0907800F090790083EC80937C00F0
:1009F00070C0E0907800F090790084EC80937C00E7
:100A000068C0E0907800F090790085EC80937C00DD
:100A100060C0E0907800F090790086EC80937C00D4
:100A200058C0E0907800F090790087EC80937C00CB
:100A300050C0E0907800F09079008DE080937B00CA
:100A400080EC80937C0045C0E0907800F0907900C5
:100A500081EC80937C003DC0E0907800F0907900BC
:100A600082EC80937C0035C0E0907800F0907900B3
:100A700083EC80937C002DC0E0907800F0907900AA
:100A800084EC80937C0025C0E0907800F0907900A1
:100A900085EC80937C001DC0E0907800F090790098
:100AA00086EC80937C0015C0E0907800F09079008F
:100AB00087EC80937C000DC0E0907800F090790086
:100AC00080EC80937C0085E080937B0002C0E12C69
:100AD000F12CFE01E055FE4F008110E0FE01E00F19
:100AE000F11FE056FE4F8081882309F46EC0FE019D
:100AF000E00FF11FE057FE4F8081882309F44CC0BE
:100B0000FE01E00FF11FE058FE4F808181111BC0F4
:100B10006801CC0CDD1CC601800F911F880F991F46
:100B2000880F991F880F991FB7018C0F9D1F0E9476
:100B30003E1CBC01CE0104DFCC0EDD1EF601EF54DD
:100B4000FE4F91838083FE01E055FE4F808190E04F
:100B5000FE01E80FF91FE058FE4F2081213009F017
:100B600073C08C01000F111F800F911F880F991FF8
:100B7000880F991F880F991FB7018C0F9D1F0E9426
:100B80003E1CBC01CE01F0DE0C0F1D1FF801EF541E
:100B9000FE4F9183808358C06801CC0CDD1CC601D8
:100BA000800F911F880F991F880F991F880F991F19
:100BB000B7018C0F9D1F0E943E1CCC0EDD1EF6015E
:100BC000EF54FE4F918380833FC0FE01E00FF11F81
:100BD000E057FE4F8081882371F1FE01E00FF11F85
:100BE000E058FE4F808181110CC0B701CE01A8DE14
:100BF000000F111F0C0F1D1FF801EF54FE4F9183C2
:100C00008083FE01E055FE4F008110E0FE01E00F01
:100C1000F11FE058FE4F80818130B1F4B701CE0161
:100C2000A3DE000F111F0C0F1D1FF801EF54FE4F24
:100C30009183808309C0000F111F0C0F1D1FF80145
:100C4000EF54FE4FF182E082FE01E055FE4F8081BD
:100C50008F3018F48F5F808303C0C055DE4F188239
:100C6000DF91CF911F910F91FF90EF90DF90CF9088
:100C700008956031F0F470E0AC01460F571FFA019F
:100C8000E056FE4F208130E0DA01A057BE4F4C9174
:100C900041112260680F791FFB01E058FE4F9081DF
:100CA000892F90E0880F991F880F991F822B932B13
:100CB000089580E090E00895603170F540FF08C02D
:100CC000FC01E60FF11DE056FE4F21E0208306C037
:100CD000FC01E60FF11DE056FE4F108241FF08C0F7
:100CE000FC01E60FF11DE057FE4F21E0208306C016
:100CF000FC01E60FF11DE057FE4F1082860F911D9B
:100D0000FC01E058FE4F4C7050E0559547955595C5
:100D10004795408380E0089581E008951F920F92E7
:100D20000FB60F92112400000F900FBE0F901F906E
:100D3000189581E0089581E0089581E0089581E0AB
:100D4000089581E0089581E00895FF920F931F9325
:100D5000CF93DF938830910588F5EC01E091440250
:100D6000F0914502880F991FE80FF91F808191814A
:100D70000E946C18F82E46E06EEC77E080E090E080
:100D80000E9412178C0143E066EC77E00E94121774
:100D9000BE010E949F166F2D70E00E949F166AE3AD
:100DA000C8010E94231D0115110551F0C8010E94C0
:100DB000C718C8010E943C1C80E003C081E001C04C
:100DC00080E0DF91CF911F910F91FF9008951F93C5
:100DD000CF93DF93C0E0D0E091E010E0911103C029
:100DE00080E20E94F31CCE01B0DF811105C0219684
:100DF000912FC830D10591F7DF91CF911F910895C0
:100E00001F93CF93DF93182F843080F528EF290F9D
:100E1000273F70F1682F9F3FB1F4C0E0D0E0E09130
:100E20004402F0914502CE01880F991FE80FF91F87
:100E3000612F808191810E94E5172196C830D105EC
:100E400071F7C5DF16C0C92F80E0D82FE0914402AA
:100E5000F0914502CE01880F991FE80FF91F80819C
:100E600091810E94E517CE0170DF03C081E001C0CF
:100E700081E0DF91CF911F910895FF920F931F930F
:100E8000CF93DF938830910588F5EC01E091420221
:100E9000F0914302880F991FE80FF91F808191811B
:100EA0000E946C18F82E46E06EEC77E080E090E04F
:100EB0000E9412178C0143E063EC77E00E94121746
:100EC000BE010E949F166F2D70E00E949F166AE37C
:100ED000C8010E94231D0115110551F0C8010E948F
:100EE000C718C8010E943C1C80E003C081E001C01B
:100EF00080E0DF91CF911F910F91FF9008951F9394
:100F0000CF93DF93C0E0D0E091E010E0911103C0F7
:100F100080E20E94F31CCE01B0DF811105C0219652
:100F2000912FC830D10591F7DF91CF911F9108958E
:100F30001F93CF93DF93182F843080F528EF290F6C
:100F4000273F70F1682F9F3FB1F4C0E0D0E0E091FF
:100F50004202F0914302CE01880F991FE80FF91F5A
:100F6000612F808191810E94E5172196C830D105BB
:100F700071F7C5DF16C0C92F80E0D82FE09142027B
:100F8000F0914302CE01880F991FE80FF91F80816D
:100F900091810E94E517CE0170DF03C081E001C09E
:100FA00081E0DF91CF911F910895FF920F931F93DE
:100FB000CF93DF938830910588F5EC01E0914002F2
:100FC000F0914102880F991FE80FF91F80819181EC
:100FD0000E946C18F82E46E06EEC77E080E090E01E
:100FE0000E9412178C0143E060EC77E00E94121718
:100FF000BE010E949F166F2D70E00E949F166AE34B
:10100000C8010E94231D0115110551F0C8010E945D
:10101000C718C8010E943C1C80E003C081E001C0E9
:1010200080E0DF91CF911F910F91FF9008951F9362
:10103000CF93DF93C0E0D0E091E010E0911103C0C6
:1010400080E20E94F31CCE01B0DF811105C0219621
:10105000912FC830D10591F7DF91CF911F9108955D
:101060001F93CF93DF93182F843080F528EF290F3B
:10107000273F70F1682F9F3FB1F4C0E0D0E0E091CE
:101080004002F0914102CE01880F991FE80FF91F2D
:10109000612F808191810E94E5172196C830D1058A
:1010A00071F7C5DF16C0C92F80E0D82FE09140024C
:1010B000F0914102CE01880F991FE80FF91F80813E
:1010C00091810E94E517CE0170DF03C081E001C06D
:1010D00081E0DF91CF911F910895FF920F931F93AD
:1010E000CF93DF938830910588F5EC01E0913E02C3
:1010F000F0913F02880F991FE80FF91F80819181BD
:101100000E946C18F82E46E06EEC77E080E090E0EC
:101110000E9412178C0143E06DEB77E00E941217DA
:10112000BE010E949F166F2D70E00E949F166AE319
:10113000C8010E94231D0115110551F0C8010E942C
:10114000C718C8010E943C1C80E003C081E001C0B8
:1011500080E0DF91CF911F910F91FF9008951F9331
:10116000CF93DF93C0E0D0E091E010E0911103C095
:1011700080E20E94F31CCE01B0DF811105C02196F0
:10118000912FC830D10591F7DF91CF911F9108952C
:101190001F93CF93DF93182F843080F528EF290F0A
:1011A000273F70F1682F9F3FB1F4C0E0D0E0E0919D
:1011B0003E02F0913F02CE01880F991FE80FF91F00
:1011C000612F808191810E94E5172196C830D10559
:1011D00071F7C5DF16C0C92F80E0D82FE0913E021D
:1011E000F0913F02CE01880F991FE80FF91F80810F
:1011F00091810E94E517CE0170DF03C081E001C03C
:1012000081E0DF91CF911F910895FF920F931F937B
:10121000CF93DF938830910588F5EC01E0913C0293
:10122000F0913D02880F991FE80FF91F808191818D
:101230000E946C18F82E46E06EEC77E080E090E0BB
:101240000E9412178C0143E06AEB77E00E941217AC
:10125000BE010E949F166F2D70E00E949F166AE3E8
:10126000C8010E94231D0115110551F0C8010E94FB
:10127000C718C8010E943C1C80E003C081E001C087
:1012800080E0DF91CF911F910F91FF9008951F9300
:10129000CF93DF93C0E0D0E091E010E0911103C064
:1012A00080E20E94F31CCE01B0DF811105C02196BF
:1012B000912FC830D10591F7DF91CF911F910895FB
:1012C0001F93CF93DF93182F843080F528EF290FD9
:1012D000273F70F1682F9F3FB1F4C0E0D0E0E0916C
:1012E0003C02F0913D02CE01880F991FE80FF91FD3
:1012F000612F808191810E94E5172196C830D10528
:1013000071F7C5DF16C0C92F80E0D82FE0913C02ED
:10131000F0913D02CE01880F991FE80FF91F8081DF
:1013200091810E94E517CE0170DF03C081E001C00A
:1013300081E0DF91CF911F910895EF92FF920F937B
:101340001F93CF93DF93EC018830910538F5682F18
:1013500087E492E08EDC7C0146E06EEC77E080E092
:1013600090E00E9412178C0144E066EB77E00E9447
:101370001217BE010E949F16B7010E949F166AE3D2
:10138000C8010E94231D0115110551F0C8010E94DA
:10139000C718C8010E943C1C80E003C081E001C066
:1013A00080E0DF91CF911F910F91FF90EF90089512
:1013B0001F93CF93DF93C0E0D0E081E010E088235B
:1013C00029F0CE01BADF882341F00DC080E20E94EF
:1013D000F31CCE01B2DF811106C02196812FC830E7
:1013E000D10569F780E0DF91CF911F910895CF93E8
:1013F000DF93C92FD82F9F3F69F4C0E04D2F6C2F8A
:1014000087E492E059DC81110DC0CF5FC830B1F79D
:10141000CFDF08C0482F692F87E492E04DDC8C2F86
:1014200090E08BDFDF91CF910895EF92FF920F93C1
:101430001F93CF93DF93EC018830910540F5682F1F
:10144000685F87E492E015DC7C0146E06EEC77E0B3
:1014500080E090E00E9412178C0144E062EB77E09C
:101460000E941217BE010E949F16B7010E949F168C
:101470006AE3C8010E94231D0115110551F0C8013E
:101480000E94C718C8010E943C1C80E003C081E094
:1014900001C080E0DF91CF911F910F91FF90EF90FD
:1014A00008951F93CF93DF93C0E0D0E081E010E078
:1014B000882329F0CE01B9DF882341F00DC080E2F6
:1014C0000E94F31CCE01B1DF811106C02196812F4D
:1014D000C830D10569F780E0DF91CF911F91089561
:1014E000CF93DF93C92FD82F9F3F69F4C8E04D2FCA
:1014F0006C2F87E492E0E0DB81110EC0CF5FC0313A
:10150000B1F7CFDF09C068E0690F482F87E492E0A8
:10151000D3DB8C2F90E089DFDF91CF910895EF929C
:10152000FF920F931F93CF93DF93EC0145E069EC9B
:1015300077E080E090E00E9412178C0143E066ECB7
:1015400077E00E941217BE010E949F167C01C830EE
:10155000D10540F58091440290914502CC0FDD1FEA
:10156000C80FD91F888199810E945C17882331F0A8
:1015700061E070E0C7010E949F1605C060E070E066
:10158000C7010E949F166AE3C8010E94231D01152E
:10159000110551F0C8010E94C718C8010E943C1CE7
:1015A00080E003C081E001C080E0DF91CF911F9116
:1015B0000F91FF90EF900895CF93DF9388309105BE
:1015C00078F5EC01E0914402F0914502880F991FF3
:1015D000E80FF91F808191810E946C18823079F0A8
:1015E000E0914402F0914502CE01880F991FE80F67
:1015F000F91F808191810E946C18833099F4E091E9
:101600004402F0914502CE01880F991FE80FF91F9F
:1016100061E0808191810E94A017CE0180DF03C02C
:1016200081E001C081E0DF91CF910895CF93DF93F6
:101630008830910578F5EC01E0914402F091450283
:10164000880F991FE80FF91F808191810E946C1803
:10165000823079F0E0914402F0914502CE01880F8A
:10166000991FE80FF91F808191810E946C188330C7
:1016700099F4E0914402F0914502CE01880F991F40
:10168000E80FF91F60E0808191810E94A017CE01D0
:1016900046DF03C081E001C081E0DF91CF91089572
:1016A0001F93CF93DF93C0E0D0E091E010E0911161
:1016B00003C080E20E94F31CCE0131DF811105C01E
:1016C0002196912FC830D10591F7DF91CF911F91CD
:1016D0000895EF92FF920F931F93CF93DF93C0E093
:1016E000D0E0EE24E394F12C8C01112797010C2E0D
:1016F00002C0220F331F0A94E2F7C801822393230A
:101700002817390779F4E0914402F0914502CE019F
:10171000880F991FE80FF91F61E0808191810E9475
:10172000A0170EC0E0914402F0914502CE01880F4F
:10173000991FE80FF91F60E0808191810E94A01736
:101740002196C830D10591F6ABDFDF91CF911F9183
:101750000F91FF90EF900895EF92FF920F931F93D8
:10176000CF93DF93EC0145E069EC77E080E090E017
:101770000E9412178C0143E063EC77E00E9412177D
:10178000BE010E949F167C01C830D10540F58091B2
:10179000420290914302CC0FDD1FC80FD91F8881F0
:1017A00099810E945C17882331F061E070E0C701E5
:1017B0000E949F1605C060E070E0C7010E949F165E
:1017C0006AE3C8010E94231D0115110551F0C801EB
:1017D0000E94C718C8010E943C1C80E003C081E041
:1017E00001C080E0DF91CF911F910F91FF90EF90AA
:1017F0000895CF93DF938830910578F5EC01E0915F
:101800004202F0914302880F991FE80FF91F80816F
:1018100091810E946C18823079F0E0914202F0913F
:101820004302CE01880F991FE80FF91F8081918133
:101830000E946C18833099F4E0914202F0914302C7
:10184000CE01880F991FE80FF91F61E08081918117
:101850000E94A017CE0180DF03C081E001C081E0BB
:10186000DF91CF910895CF93DF938830910578F57C
:10187000EC01E0914202F0914302880F991FE80FBA
:10188000F91F808191810E946C18823079F0E0917B
:101890004202F0914302CE01880F991FE80FF91F11
:1018A000808191810E946C18833099F4E09142020A
:1018B000F0914302CE01880F991FE80FF91F60E0F5
:1018C000808191810E94A017CE0146DF03C081E094
:1018D00001C081E0DF91CF9108951F93CF93DF93F3
:1018E000C0E0D0E091E010E0911103C080E20E94DE
:1018F000F31CCE0131DF811105C02196912FC83034
:10190000D10591F7DF91CF911F910895EF92FF924A
:101910000F931F93CF93DF93C0E0D0E0EE24E394C6
:10192000F12C8C01112797010C2E02C0220F331FBE
:101930000A94E2F7C801822393232817390779F420
:10194000E0914202F0914302CE01880F991FE80F07
:10195000F91F61E0808191810E94A0170EC0E09183
:101960004202F0914302CE01880F991FE80FF91F40
:1019700060E0808191810E94A0172196C830D10536
:1019800091F6ABDFDF91CF911F910F91FF90EF9018
:101990000895EF92FF920F931F93CF93DF93EC0183
:1019A00045E069EC77E080E090E00E9412178C013E
:1019B00043E060EC77E00E941217BE010E949F1680
:1019C0007C01C830D10540F58091400290914102E0
:1019D000CC0FDD1FC80FD91F888199810E945C1729
:1019E000882331F061E070E0C7010E949F1605C0B6
:1019F00060E070E0C7010E949F166AE3C8010E9480
:101A0000231D0115110551F0C8010E94C718C80116
:101A10000E943C1C80E003C081E001C080E0DF91B7
:101A2000CF911F910F91FF90EF900895CF93DF9387
:101A30008830910578F5EC01E0914002F091410287
:101A4000880F991FE80FF91F808191810E946C18FF
:101A5000823079F0E0914002F0914102CE01880F8E
:101A6000991FE80FF91F808191810E946C188330C3
:101A700099F4E0914002F0914102CE01880F991F44
:101A8000E80FF91F61E0808191810E94A017CE01CB
:101A900080DF03C081E001C081E0DF91CF91089534
:101AA000CF93DF938830910578F5EC01E091400207
:101AB000F0914102880F991FE80FF91F80819181F1
:101AC0000E946C18823079F0E0914002F09141025E
:101AD000CE01880F991FE80FF91F808191810E9424
:101AE0006C18833099F4E0914002F0914102CE01EC
:101AF000880F991FE80FF91F60E0808191810E9493
:101B0000A017CE0146DF03C081E001C081E0DF9174
:101B1000CF9108951F93CF93DF93C0E0D0E091E081
:101B200010E0911103C080E20E94F31CCE0131DF6E
:101B3000811105C02196912FC830D10591F7DF9111
:101B4000CF911F910895EF92FF920F931F93CF9320
:101B5000DF93C0E0D0E0EE24E394F12C8C01112758
:101B600097010C2E02C0220F331F0A94E2F7C8011E
:101B7000822393232817390779F4E0914002F091EA
:101B80004102CE01880F991FE80FF91F61E08081A3
:101B900091810E94A0170EC0E0914002F091410295
:101BA000CE01880F991FE80FF91F60E080819181B5
:101BB0000E94A0172196C830D10591F6ABDFDF91C6
:101BC000CF911F910F91FF90EF900895EF92FF92A8
:101BD0000F931F93CF93DF93EC0145E069EC77E01F
:101BE00080E090E00E9412178C0143E06DEB77E0FB
:101BF0000E941217BE010E949F167C01C830D105B9
:101C000040F580913E0290913F02CC0FDD1FC80F3E
:101C1000D91F888199810E945C17882331F061E087
:101C200070E0C7010E949F1605C060E070E0C70128
:101C30000E949F166AE3C8010E94231D0115110529
:101C400051F0C8010E94C718C8010E943C1C80E0E6
:101C500003C081E001C080E0DF91CF911F910F911F
:101C6000FF90EF900895CF93DF938830910578F53A
:101C7000EC01E0913E02F0913F02880F991FE80FBE
:101C8000F91F808191810E946C18823079F0E09177
:101C90003E02F0913F02CE01880F991FE80FF91F15
:101CA000808191810E946C18833099F4E0913E020A
:101CB000F0913F02CE01880F991FE80FF91F61E0F4
:101CC000808191810E94A017CE0180DF03C081E056
:101CD00001C081E0DF91CF910895CF93DF938830E9
:101CE000910578F5EC01E0913E02F0913F02880FFA
:101CF000991FE80FF91F808191810E946C18823032
:101D000079F0E0913E02F0913F02CE01880F991FD9
:101D1000E80FF91F808191810E946C18833099F43B
:101D2000E0913E02F0913F02CE01880F991FE80F2B
:101D3000F91F60E0808191810E94A017CE0146DFEB
:101D400003C081E001C081E0DF91CF9108951F932E
:101D5000CF93DF93C0E0D0E091E010E0911103C099
:101D600080E20E94F31CCE0131DF811105C0219673
:101D7000912FC830D10591F7DF91CF911F91089530
:101D8000EF92FF920F931F93CF93DF93C0E0D0E0C9
:101D9000EE24E394F12C8C01112797010C2E02C044
:101DA000220F331F0A94E2F7C801822393232817D6
:101DB000390779F4E0913E02F0913F02CE01880F9D
:101DC000991FE80FF91F61E0808191810E94A0179F
:101DD0000EC0E0913E02F0913F02CE01880F991FA4
:101DE000E80FF91F60E0808191810E94A017219681
:101DF000C830D10591F6ABDFDF91CF911F910F91E4
:101E0000FF90EF900895EF92FF920F931F93CF935F
:101E1000DF93EC0145E069EC77E080E090E00E9420
:101E200012178C0143E06AEB77E0FCD7BE0187D73D
:101E30007C01C830D10530F580913C0290913D0283
:101E4000CC0FDD1FC80FD91F888199810E945C17B4
:101E5000882329F061E070E0C70171D704C060E019
:101E600070E0C7016CD76AE3C8010E94231D011509
:101E7000110551F0C8010E94C718C8010E943C1CFE
:101E800080E003C081E001C080E0DF91CF911F912D
:101E90000F91FF90EF900895CF93DF9388309105D5
:101EA00078F5EC01E0913C02F0913D02880F991F1A
:101EB000E80FF91F808191810E946C18823079F0BF
:101EC000E0913C02F0913D02CE01880F991FE80F8E
:101ED000F91F808191810E946C18833099F4E09100
:101EE0003C02F0913D02CE01880F991FE80FF91FC7
:101EF00061E0808191810E94A017CE0184DF03C040
:101F000081E001C081E0DF91CF910895CF93DF930D
:101F10008830910570F5EC01E0913C02F0913D02B2
:101F2000880F991FE80FF91F808191810E946C181A
:101F3000823079F0E0913C02F0913D02CE01880FB1
:101F4000991FE80FF91F808191810E946C188330DE
:101F500091F4E0913C02F0913D02CE01880F991F6F
:101F6000E80FF91F60E080819181EAD7CE014BDF55
:101F700003C081E001C081E0DF91CF9108951F93FC
:101F8000CF93DF93C0E0D0E091E010E0911103C067
:101F900080E20E94F31CCE0136DF811105C021963C
:101FA000912FC830D10591F7DF91CF911F910895FE
:101FB000EF92FF920F931F93CF93DF93C0E0D0E097
:101FC000EE24E394F12C8C01112797010C2E02C012
:101FD000220F331F0A94E2F7C801822393232817A4
:101FE000390771F4E0913C02F0913D02CE01880F77
:101FF000991FE80FF91F61E080819181A1D70DC081
:10200000E0913C02F0913D02CE01880F991FE80F4C
:10201000F91F60E08081918193D72196C830D10566
:10202000A1F6ADDFDF91CF911F910F91FF90EF905F
:102030000895EF92FF920F931F93CF93DF93EC01DC
:1020400045E069EC77E080E090E0ECD68C0144E07C
:1020500066EB77E0E7D6BE0172D67C01C830D105C9
:10206000B8F46C2F87E492E00E949004BC01C70191
:1020700066D66AE3C8010E94231D0115110551F0BF
:10208000C8010E94C718C8010E943C1C80E003C020
:1020900081E001C080E0DF91CF911F910F91FF900F
:1020A000EF9008951F93CF93DF93C0E0D0E091E0CD
:1020B00010E0911103C080E20E94F31CCE01B9DF51
:1020C000811105C02196912FC830D10591F7DF917C
:1020D000CF911F910895EF92FF920F931F93CF938B
:1020E000DF93EC0145E069EC77E080E090E09AD680
:1020F0008C0144E062EB77E095D6BE0120D67C01EE
:10210000C830D105C0F46C2F685F87E492E00E946C
:102110009004BC01C70113D66AE3C8010E94231DC5
:102120000115110551F0C8010E94C718C8010E948D
:102130003C1C80E003C081E001C080E0DF91CF91D2
:102140001F910F91FF90EF9008951F93CF93DF930E
:10215000C0E0D0E091E010E0911103C080E20E9465
:10216000F31CCE01B8DF811105C02196912FC83034
:10217000D10591F7DF91CF911F91089593DFE5DFAE
:102180008FDAABDBC7DCE3DDFACE0895CF93DF93C4
:102190000E94091C42D6EC010E943A1D209729F0AA
:1021A000CE01F5D7CE010E943C1C80E0DF91CF919B
:1021B000089521E0FC0120830895CF93DF93FB0174
:1021C000928192131DC0C081D1819923D9F0FA0167
:1021D00024918881821318C0DE01119631969150A6
:1021E000892F90E001968C0F9D1F05C03D91249191
:1021F000319632130BC0A817B907C1F781E007C0A9
:1022000080E005C081E003C080E001C080E0DF9194
:10221000CF910895AF92BF92DF92EF92FF920F930A
:102220001F93CF93DF93FC011281112309F476C031
:102230006081718191E080E0E0E0F0E0412F50E0CA
:1022400001E00F2EF0E1AF2EF7E2BF2EF02DA8EE49
:10225000B3E00F2EF4E6DF2EF02D9A01291B310991
:10226000EB01C20FD31F28812D3209F44BC030ED92
:10227000320F3A3008F047C0913031F430E020534B
:102280003109E20FF31F3FC0923089F430E0205350
:1022900031097901EE0CFF1C220F331F220F331F6F
:1022A000220F331F2E0D3F1DE20FF31F2CC0933062
:1022B00059F430E020533109D29E7001D39EF00CC6
:1022C0001124EE0DFF1D1FC0943069F430E020533F
:1022D00031092A9F70012B9FF00C3A9FF00C1124BA
:1022E000EE0DFF1D10C09530E1F430E020533109B0
:1022F0002A9D70012B9DF00C3A9DF00C1124EE0DDF
:10230000FF1D01C0802F9F5F191708F0A6CF8823FB
:1023100059F0882799278E1B9F0B07C080E090E01B
:1023200004C080E090E001C0CF01DF91CF911F9108
:102330000F91FF90EF90DF90BF90AF900895EF92D4
:10234000FF920F931F93CF93DF93EC01DB01129663
:102350009C91992309F438C48B0127E047E058E0A9
:10236000CE012BDF882331F0F80185819681892BFE
:1023700009F40CDF22E04FEF57E0B801CE011DDF7A
:10238000882309F421C4D80115960D911C91169744
:102390000115110509F416C423E041E058E0B80125
:1023A000CE010BDF882309F4D9C1F801E580F6805E
:1023B000E114F10409F4CEC126E049EF57E0B7017A
:1023C000CE01FBDE882309F4E5C0D70115960D91F7
:1023D0001C9116970115110509F4D8C023E041EFAF
:1023E00057E0B801CE01E9DE8823B9F0F801E580B5
:1023F000F680E114F10469F0D70115968D919C9156
:102400001697892B49F4C70105DF0E94A5068701AD
:1024100004C00E94E70601C0870123E04EEE57E0AA
:10242000B801CE01CADE8823B9F0F801E580F68054
:10243000E114F10469F0D70115968D919C911697DE
:10244000892B49F4C701E6DE0E943D07870104C0DD
:102450000E947F0701C0870123E04BEE57E0B801DF
:10246000CE01ABDE8823B9F0F801E580F680E114F7
:10247000F10469F0D70115968D919C911697892BDF
:1024800049F4C701C7DE0E94D507870104C00E9436
:10249000170801C0870123E048EE57E0B801CE01DC
:1024A0008CDE8823B9F0F801E580F680E114F104B0
:1024B00069F0D70115968D919C911697892B49F457
:1024C000C701A8DE0E946D08870104C00E94AF0802
:1024D00001C0870123E045EE57E0B801CE016DDE73
:1024E0008823B9F0F801E580F680E114F10469F081
:1024F000D70115968D919C911697892B49F4C701A8
:1025000089DE0E940509870104C00E94470901C0B5
:10251000870124E041EE57E0B801CE014EDE88236A
:10252000B9F0F801E580F680E114F10469F0D70113
:1025300015968D919C911697892B49F4C7016ADEF7
:102540000E949D09870104C00E94D80901C087012B
:1025500024E04DED57E0B801CE012FDE8823E9F0ED
:10256000F801E580F680E114F10469F0D7011596D1
:102570008D919C911697892B79F4C7014BDE0E94AF
:10258000150A87010AC00E94510A07C00E94A306CB
:10259000870103C0870101C0870125E044EF57E0B0
:1025A000B801CE010ADE882309F4D8C0F801E5801D
:1025B000F680E114F10409F4CBC023E041EF57E0C9
:1025C000B701CE01FADD8823B1F0D70115960D9140
:1025D0001C9116970115110559F0F8018581968116
:1025E000892B41F4C80116DE0E948F0A780103C0CE
:1025F00057D801C0780123E04EEE57E0B701CE0175
:10260000DCDD8823A9F0D70115960D911C91169752
:102610000115110551F0F80185819681892B39F456
:10262000C801F8DD99D8780103C057D901C07801F5
:1026300023E04BEE57E0B701CE01BFDD8823A9F0C0
:10264000D70115960D911C9116970115110551F0A2
:10265000F80185819681892B39F4C801DBDD99D990
:10266000780103C057DA01C0780123E048EE57E053
:10267000B701CE01A2DD8823A9F0D70115960D91EF
:102680001C9116970115110551F0F801858196816D
:10269000892B39F4C801BEDD99DA780103C057DB14
:1026A00001C0780123E045EE57E0B701CE0185DD9A
:1026B0008823A9F0D70115960D911C911697011545
:1026C000110551F0F80185819681892B39F4C801F3
:1026D000A1DD99DB780103C052DC01C0780124E060
:1026E00041EE57E0B701CE0168DD8823A9F0D7019C
:1026F00015960D911C9116970115110551F0F801D1
:1027000085819681892B39F4C80184DD92DC7801BA
:1027100003C0C8DC01C0780124E04DED57E0B701EB
:10272000CE014BDD8823C9F0D70115960D911C9180
:1027300016970115110549F0F80185819681892BBD
:1027400069F4C80167DDC7DC09C0FFDC870106C08A
:1027500015DD04C00E94A10601C0870123E044E00A
:1027600058E0B801CE0129DD882309F42DC2D80133
:1027700015960D911C9116970115110509F41FC2AC
:1027800025E044EF57E0B801CE0117DD882309F4B6
:1027900043C1F801E580F680E114F10409F436C183
:1027A00023E041EF57E0B701CE0107DD8823C9F1EF
:1027B000D70115960D911C9116970115110589F1F8
:1027C00024E049ED57E0B801CE01F7DC882359F049
:1027D000F801E580F680E114F10401F1C7011ADD8A
:1027E0000E94DC0A1EC025E044ED57E0B801CE018E
:1027F000E4DC882369F0D8011596ED90FC901697DB
:10280000E114F10469F0C70105DD0E94160B09C04F
:10281000C80100DD0E94690B780103C0780101C086
:10282000780123E04EEE57E0B701CE01C6DC8823E5
:10283000B1F1F701058116810115110581F124E03F
:1028400049ED57E0B801CE01B8DC882369F0D80122
:102850001596ED90FC901697E114F104E9F0C7018C
:10286000D9DC0E94F90B1BC025E044ED57E0B8010C
:10287000CE01A3DC882359F0F801E580F680E1144D
:10288000F10461F0C701C6DC0E94330C08C0C80126
:10289000C1DC3CD8780103C0780101C0780123E095
:1028A0004BEE57E0B701CE0188DC8823B1F1D701A8
:1028B00015960D911C9116970115110571F124E0E3
:1028C00049ED57E0B801CE0178DC882351F0F801DA
:1028D000E580F680E114F104E9F0C7019BDCA6D89D
:1028E0001CC025E044ED57E0B801CE0166DC88232A
:1028F00061F0D8011596ED90FC901697E114F10463
:1029000059F0C70187DCCCD808C0C80183DC1BD9CB
:10291000780103C0780101C0780123E048EE57E058
:10292000B701CE014ADC8823A1F1F70105811681A8
:102930000115110571F124E049ED57E0B801CE0110
:102940003CDC882361F0D8011596ED90FC90169739
:10295000E114F104D9F0C7015DDC85D91AC025E086
:1029600044ED57E0B801CE0128DC882351F0F8018E
:10297000E580F680E114F10459F0C7014BDCADD9D4
:1029800008C0C80147DCFCD9780103C0780101C048
:10299000780123E045EE57E0B701CE010EDC882335
:1029A00009F437C0D70115960D911C9116970115A2
:1029B000110589F124E049ED57E0B801CE01FDDBB6
:1029C000882359F0F801E580F680E114F10421F143
:1029D000C70120DC61DA87011FC025E044ED57E024
:1029E000B801CE01EADB882369F0D8011596ED9095
:1029F000FC901697E114F10479F0C7010BDC86DA3C
:102A000087010AC0C80106DCD3DA06C00E949D0611
:102A100003C0870101C0870126E049EF57E0B801F4
:102A2000CE01CBDB882309F4CFC0F80105811681E4
:102A30000115110509F4C0C023E041EF57E0B801CA
:102A4000CE01BBDB8823A1F0D8011596ED90FC9058
:102A50001697E114F10461F0F70185819681892BC5
:102A600031F4C701D7DB0E940007870101C087014D
:102A700023E04EEE57E0B801CE019FDB8823A1F0A2
:102A8000D8011596ED90FC901697E114F10461F0D1
:102A9000F70185819681892B31F4C701BBDB0E9448
:102AA0009807870101C0870123E04BEE57E0B8018A
:102AB000CE0183DB8823A1F0D8011596ED90FC9020
:102AC0001697E114F10461F0F70185819681892B55
:102AD00031F4C7019FDB0E943008870101C08701E4
:102AE00023E048EE57E0B801CE0167DB8823A1F070
:102AF000D8011596ED90FC901697E114F10461F061
:102B0000F70185819681892B31F4C70183DB0E940F
:102B1000C808870101C0870123E045EE57E0B801EE
:102B2000CE014BDB8823A1F0D8011596ED90FC90E7
:102B30001697E114F10461F0F70185819681892BE4
:102B400031F4C70167DB0E946009870101C087017A
:102B500024E041EE57E0B801CE012FDB8823A1F03D
:102B6000D8011596ED90FC901697E114F10461F0F0
:102B7000F70185819681892B31F4C7014BDB0E94D7
:102B8000F709870101C0870124E04DED57E0B80146
:102B9000CE0113DB8823C1F0D8011596ED91FC918D
:102BA0001697309789F085819681892B69F4CF013A
:102BB00031DB0E94700A08C00E949F0605C00E9477
:102BC0009B0602C00E949906DF91CF911F910F9141
:102BD000FF90EF9008953F924F925F926F927F9295
:102BE0008F929F92AF92BF92CF92DF92EF92FF921D
:102BF0000F931F93CF93DF93CDB7DEB769970FB6CF
:102C0000F894DEBF0FBECDBF5C01FE01319689E1B5
:102C1000DF011D928A95E9F78091180490E00197F1
:102C2000181619060CF43FC056C0172DF601E10F17
:102C3000F11D20831F5F012F030FE02FF0E0DF0164
:102C4000A75EBB4F2C91203231F0E817F90774F3DF
:102C500002C0032F172D662361F087E090E00AD6AB
:102C6000982E892E412F652D762D68D2E92CF82CCF
:102C70000DC087E090E0FED5382E492E212F452D3E
:102C8000562D692D782D2BD2932C842C31E0300FCA
:102C90008091180490E00197672D432F50E048176A
:102CA000590754F018C061E030E0712CAE014F5F5D
:102CB0005F4F6A01542E6D2C432F50E0FA01E75EFE
:102CC000FB4F2081203229F2481759070CF4ADCF71
:102CD000032F172DC0CFB701C50131DB10921804A7
:102CE000E114F10421F0C70152D2C701C5D58DE02E
:102CF0007AD669960FB6F894DEBF0FBECDBFDF91CE
:102D0000CF911F910F91FF90EF90DF90CF90BF90E8
:102D1000AF909F908F907F906F905F904F903F907B
:102D20000895CF93DF93FC012081222329F0EC0149
:102D300052DF109218041882DF91CF910895CF923C
:102D4000DF92EF92FF920F931F93CF93DF9300D008
:102D500000D0CDB7DEB77C019B01FE01319686E045
:102D6000DF011D928A95E9F7772394F53195219536
:102D700031098DE2898311E02CC0C901BF017DD6E4
:102D8000611102C0442391F06E9FC0016F9F900DAE
:102D90001124281B390BA1E0B0E0AC0FBD1FA10F1F
:102DA000B11D90E3960F9C931F5F402FCF01B6019A
:102DB00064D6FB011E161F0624F41630F0F2812F94
:102DC00001C0812F81110FC080E3898311E00BC006
:102DD00010E0E0E1F7E240E001E00F2EFAE0CF2E54
:102DE000D12CF02DCACF87E090E044D56C01212F83
:102DF000AE014F5F5F4FB70172D1C60126960FB685
:102E0000F894DEBF0FBECDBFDF91CF911F910F9120
:102E1000FF90EF90DF90CF900895BC0180E090E0AC
:102E20008ECF08958F929F92BF92CF92DF92EF92B2
:102E3000FF920F931F93CF93DF93CDB7DEB76C0153
:102E4000B42EEDB6FEB68DB79EB7841B91090FB6B2
:102E5000F8949EBF0FBE8DBF0DB71EB70F5F1F4FFB
:102E6000442381F0E62FF72FD8016FEF640F70E055
:102E70006F5F7F4F600F711F94919D933196A617DE
:102E8000B707D1F787E090E0F5D44C012B2DA801CE
:102E9000B60125D1C4010FB6F894FEBE0FBEEDBE3B
:102EA000DF91CF911F910F91FF90EF90DF90CF9026
:102EB000BF909F908F900895FC019081913099F080
:102EC00028F09230F9F0933051F138C0A181B281ED
:102ED0002C9130E0C901078002C0959587950A942E
:102EE000E2F781700895A181B2812C9130E0C9018F
:102EF000078002C0959587950A94E2F721E0822722
:102F000081700895A381B4812C9130E0C9010780BC
:102F100002C0959587950A94E2F781700895A38180
:102F2000B4812C9130E0C901078002C09595879546
:102F30000A94E2F721E082278170089580E00895E5
:102F4000FC018081823019F0833001F108956623FD
:102F500071F0A381B4812C9181E090E0078002C0E0
:102F6000880F991F0A94E2F7822B8C930895A3810E
:102F7000B4812C9181E090E0078002C0880F991FF6
:102F80000A94E2F7809582238C930895662379F062
:102F9000A381B4812C9181E090E0078002C0880F6A
:102FA000991F0A94E2F7809582238C930895A38158
:102FB000B4812C9181E090E0078002C0880F991FB6
:102FC0000A94E2F7822B8C930895FC0160836130B0
:102FD00019F130F06230E1F1633009F454C0089522
:102FE000A581B6813C9181E090E0AC01078002C0F0
:102FF000440F551F0A94E2F7242F209523232C9386
:10300000A381B4812C91078002C0880F991F0A9474
:10301000E2F7822B8C930895A581B6813C9181E0E3
:1030200090E0AC01078002C0440F551F0A94E2F7FC
:10303000242F209523232C93A381B4812C910780E6
:1030400002C0880F991F0A94E2F7822B8C9308958F
:10305000A581B6814C9181E090E09C01078002C07F
:10306000220F331F0A94E2F7242B2C93A381B481FF
:103070002C91078002C0880F991F0A94E2F780956F
:1030800082238C930895A581B6814C9181E090E0D4
:103090009C01078002C0220F331F0A94E2F7242B01
:1030A0002C93A381B4812C91078002C0880F991FB3
:1030B0000A94E2F7822B8C930895EF920F93FC0110
:1030C00076836583548343833283218307836E2D04
:1030D0007CDF0F91EF900895FC0180810895FF92AD
:1030E0000F931F93CF93DF93EC01F42E052F122F34
:1030F0001E821D827C836B836115710519F0FB01B3
:1031000096838583812F90E002D59983888311234C
:1031100071F0AF2DB02F40E050E09D91E881F98132
:10312000E40FF51F90834F5F5F4F4117B0F31A8391
:10313000DF91CF911F910F91FF900895FF920F9310
:103140001F93CF93DF93EC01F62E072F142F1E82CF
:103150001D821C821B82842F90E0D9D4998388839E
:10316000112371F0AF2DB02F20E030E09D91E88168
:10317000F981E20FF31F90832F5F3F4F2117B0F3C8
:103180001A83DF91CF911F910F91FF900895CF93F4
:10319000DF93EC01888199814FD5198218820D80C7
:1031A000DE81C02D209721F0CE01F1DFCE0164D366
:1031B000DF91CF910895EF920F93CF93DF9380E14A
:1031C00090E058D3909345028093440288E090E0C9
:1031D00051D3EC010F2EF3E0EF2EF02D01E026E2AB
:1031E00030E048E250E067E270E067DFE0914402DF
:1031F000F0914502D183C08388E090E03BD3EC019D
:1032000003E026E230E048E250E067E270E055DF9C
:10321000E0914402F0914502D383C28388E090E0BC
:1032200029D3EC0105E026E230E048E250E067E215
:1032300070E043DFE0914402F0914502D583C483FE
:1032400088E090E017D3EC0107E026E230E048E2A6
:1032500050E067E270E031DFE0914402F091450216
:10326000D783C68388E090E005D3EC0106E020E236
:1032700030E042E250E061E270E01FDFE0914402A2
:10328000F0914502D187C08788E090E0F3D2EC014D
:1032900004E020E230E042E250E061E270E00DDF65
:1032A000E0914402F0914502D387C28788E090E024
:1032B000E1D2EC0102E020E230E042E250E061E2E3
:1032C00070E0FBDEE0914402F0914502D587C487AF
:1032D00088E090E0CFD2EC0100E020E230E042E272
:1032E00050E061E270E0E9DEE0914402F0914502D5
:1032F000D787C68780E190E0BDD290934302809348
:10330000420288E090E0B6D2EC0126E230E048E2EA
:1033100050E067E270E0D1DEE0914202F0914302BA
:10332000D183C08388E090E0A5D2EC0102E026E2E0
:1033300030E048E250E067E270E0BFDEE091420238
:10334000F0914302D383C28388E090E093D2EC01F2
:1033500004E026E230E048E250E067E270E0ADDEF3
:10336000E0914202F0914302D583C48388E090E06B
:1033700081D2EC0106E026E230E048E250E067E26C
:1033800070E09BDEE0914202F0914302D783C68356
:1033900088E090E06FD2EC0107E020E230E042E20A
:1033A00050E061E270E089DEE0914202F091430278
:1033B000D187C08788E090E05DD2EC0105E020E293
:1033C00030E042E250E061E270E077DEE0914202FC
:1033D000F0914302D387C28788E090E04BD2EC01A2
:1033E00003E020E230E042E250E061E270E065DEBE
:1033F000E0914202F0914302D587C48788E090E0D3
:1034000039D2EC0101E020E230E042E250E061E23A
:1034100070E053DEE0914202F0914302D787C68705
:1034200080E190E027D2909341028093400288E0AF
:1034300090E020D2EC0107E029E230E04BE250E0DE
:103440006AE270E03ADEE0914002F0914102D183FD
:10345000C08388E090E00ED2EC0101E022E330E08E
:1034600044E350E063E370E028DEE0914002F09135
:103470004102D383C28388E090E0FCD1EC0107E0F5
:1034800029E031E04BE051E06AE071E016DEE091C6
:103490004002F0914102D583C48388E090E0EAD1F4
:1034A000EC0105E029E031E04BE051E06AE071E039
:1034B00004DEE0914002F0914102D783C68388E0A8
:1034C00090E0D8D1EC0103E029E031E04BE051E09D
:1034D0006AE071E0F2DDE0914002F0914102D187B3
:1034E000C08788E090E0C6D1EC0101E029E031E03E
:1034F0004BE051E06AE071E0E0DDE0914002F091E4
:103500004102D387C28788E090E0B4D1EC0103E0A8
:1035100023E230E045E250E064E270E0CEDDE0918D
:103520004002F0914102D587C48788E090E0A2D1A3
:10353000EC0101E023E230E045E250E064E270E0BB
:10354000BCDDE0914002F0914102D787C68780E15F
:1035500090E090D190933F0280933E0288E090E00B
:1035600089D1EC0102E022E330E044E350E063E380
:1035700070E0A3DDE0913E02F0913F02D183C08371
:1035800088E090E077D1EC0100E022E330E044E312
:1035900050E063E370E091DDE0913E02F0913F0284
:1035A000D383C28388E090E065D1EC0106E029E096
:1035B00031E04BE051E06AE071E07FDDE0913E02F6
:1035C000F0913F02D583C48388E090E053D1EC01B1
:1035D00004E029E031E04BE051E06AE071E06DDDAC
:1035E000E0913E02F0913F02D783C68388E090E0ED
:1035F00041D1EC0102E029E031E04BE051E06AE02A
:1036000071E05BDDE0913E02F0913F02D187C0871F
:1036100088E090E02FD1EC0100E029E031E04BE0C0
:1036200051E06AE071E049DDE0913E02F0913F0235
:10363000D387C28788E090E01DD1EC0102E023E24D
:1036400030E045E250E064E270E037DDE0913E02B8
:10365000F0913F02D587C48788E090E00BD1EC0160
:1036600000E023E230E045E250E064E270E025DD76
:10367000E0913E02F0913F02D787C68780E190E05B
:10368000F9D090933D0280933C0288E090E0F2D024
:10369000EC0105E020E031E042E051E061E071E062
:1036A0000CDDE0913C02F0913D02D183C08388E0C3
:1036B00090E0E0D0EC0106E020E031E042E051E0B3
:1036C00061E071E0FADCE0913C02F0913D02D383CD
:1036D000C28388E090E0CED0EC0104E02CE230E040
:1036E0004EE250E06DE270E0E8DCE0913C02F091E7
:1036F0003D02D583C48388E090E0BCD0EC0105E0B6
:103700002CE230E04EE250E06DE270E0D6DCE09179
:103710003C02F0913D02D783C68388E090E0AAD0B6
:10372000EC0122E330E044E350E063E370E0C5DC09
:10373000E0913C02F0913D02D187C08788E090E0A3
:1037400099D0EC0103E02CE230E04EE250E06DE273
:1037500070E0B3DCE0913C02F0913D02D387C28778
:1037600088E090E087D0EC0120E031E042E051E0D9
:1037700061E071E0A2DCE0913C02F0913D02D5876E
:10378000C48788E090E076D0EC0104E020E031E0EE
:1037900042E051E061E071E090DCE0913C02F091A8
:1037A0003D02D787C687DF91CF910F91EF900895A3
:1037B00002DDC3D0789486E492E0B3DAFCCF1F92A6
:1037C0000F920FB60F9211240BB60F922F933F93C7
:1037D0004F935F936F937F938F939F93AF93BF9319
:1037E000EF93FF9387E492E00E94C804FF91EF916A
:1037F000BF91AF919F918F917F916F915F914F9109
:103800003F912F910F900BBE0F900FBE0F901F9006
:103810001895CF93DF931F921F92CDB7DEB780919B
:103820007D0490917E04009711F09C0102C021E874
:1038300034E0CE010196821B930B0F900F90DF9125
:10384000CF91089587E492E00C943B0408950F9380
:103850001F93CF93DF93CFEAD3E00FE212E0CE01C4
:1038600067D06897C017D107D1F7DF91CF911F912B
:103870000F9108954CC10895DFC10895CF92DF9252
:10388000EF92FF92CF93DF9324E130E0DC01569674
:10389000ED91FC915797E20FF31FDF0112970D9006
:1038A000BC91A02DB183A0832250310979F7DC01AE
:1038B0005696ED91FC91579771836083FC01C68900
:1038C000D789AC014A5E5F4FC12CD12C7601219182
:1038D0003191A991B991ECD0C60ED71EE81EF91E00
:1038E000E417F507A1F7D701C601072E72E1B595D8
:1038F000A795979587957A95D1F7702DDF91CF9100
:10390000FF90EF90DF90CF900895CF93DF93EC017D
:1039100086E1E6E2F2E0DE0101900D928A95E1F7A0
:1039200086E190E0F4D09F8B8E8BDF91CF9108954C
:10393000FC018689978980C108951092C50080E1B5
:103940008093C40088E98093C10086E08093C20020
:1039500008951F920F920FB60F9211240BB60F927B
:103960002F933F934F935F936F937F938F939F9387
:10397000AF93BF93EF93FF93E09118048091C6003B
:10398000AE2FB0E0A75EBB4F8C93EF5FE0931804BF
:10399000F0E0E85EFB4F80818D3021F486E492E018
:1039A0000E94D910FF91EF91BF91AF919F918F919C
:1039B0007F916F915F914F913F912F910F900BBE2F
:1039C0000F900FBE0F901F9018951F920F920FB679
:1039D0000F9211248F938091CE008F910F900FBE84
:1039E0000F901F9018959091C00095FD06C0E0ECD7
:1039F000F0E00000908195FFFCCF8093C60080E04E
:103A00000895CF93DF936623D1F0DC016150262F18
:103A100030E02F5F3F4F280F391FE0ECF0E0C6EC9D
:103A2000D0E009C00000908195FFFCCF9D91988364
:103A3000A217B30721F0908195FFF4CFF7CF80E074
:103A4000DF91CF9108951F93CF93DF93EC01162F51
:103A50006A8188819981D5DF2D813E81232B31F0C8
:103A6000812FC1DF0D80DE81C02DF2CFDF91CF919C
:103A70001F91089560E2E7CF089597FB072E16F493
:103A8000009406D077FD08D02ED007FC05D03EF478
:103A9000909581959F4F0895709561957F4F0895FA
:103AA000EE0FFF1F881F8BBF0790F691E02D199432
:103AB00005D0332312F48A1B9B0B10C0A29FB001C8
:103AC000B39FC001A39F700D811D1124911DB29F52
:103AD000700D811D1124911D0895F0DFB7FF089529
:103AE000821B930B0895AA1BBB1B51E107C0AA1FA1
:103AF000BB1FA617B70710F0A61BB70B881F991F8F
:103B00005A95A9F780959095BC01CD010895CF9362
:103B1000DF938230910510F482E090E0E0917F0421
:103B2000F091800420E030E0C0E0D0E0309711F167
:103B30004081518148175907C0F04817590761F46F
:103B400082819381209719F09B838A832BC0909365
:103B5000800480937F0426C02115310519F0421797
:103B6000530718F49A01BE01DF01EF010280F381CF
:103B7000E02DDCCF2115310509F1281B390B24304C
:103B8000310590F412968D919C91139761157105F2
:103B900021F0FB019383828304C09093800480937F
:103BA0007F04FD01329644C0FD01E20FF31F8193B3
:103BB0009193225031092D933C933AC020917D047A
:103BC00030917E04232B41F42091020230910302B4
:103BD00030937E0420937D042091000230910102F5
:103BE0002115310541F42DB73EB7409104025091A3
:103BF0000502241B350BE0917D04F0917E04E21751
:103C0000F307A0F42E1B3F0B2817390778F0AC01FF
:103C10004E5F5F4F2417350748F04E0F5F1F5093DC
:103C20007E0440937D048193919302C0E0E0F0E034
:103C3000CF01DF91CF9108950F931F93CF93DF931F
:103C4000009709F48CC0FC01329713821282009114
:103C50007F04109180040115110581F420813181C8
:103C6000820F931F20917D0430917E04281739071D
:103C700079F5F0937E04E0937D0471C0D80140E0B3
:103C800050E0AE17BF0750F412962D913C91139758
:103C9000AD012115310509F1D901F3CF9D01DA01FB
:103CA0003383228360817181860F971F8217930768
:103CB00069F4EC0128813981260F371F2E5F3F4FB1
:103CC000318320838A819B8193838283452B29F4CE
:103CD000F0938004E0937F0442C01396FC93EE932C
:103CE0001297ED01499159919E01240F351FE2175A
:103CF000F30771F480819181840F951F02961196CC
:103D00009C938E938281938113969C938E931297AA
:103D1000E0E0F0E0D80112968D919C911397009706
:103D200019F0F8018C01F6CF8D919C9198012E5FCE
:103D30003F4F820F931F20917D0430917E042817FE
:103D4000390769F4309729F41092800410927F04A7
:103D500002C01382128210937E0400937D04DF91CF
:103D6000CF911F910F91089514E0C8E0D4E000E0D6
:103D700005C0802FFE0194DE2196011DC930D107B8
:0A3D800080E00807B1F7F894FFCFC8
:103D8A00000081042000010101010101010101017A
:103D9A000101010101010101010101010101010109
:103DAA00010101010101FC586A5B585DBC5E955F27
:0C3DBA00DD5F955FBC5E585D6A5BFC58E5
:00000001FF
