:100000009BC00000CAC00000C8C00000C6C00000FD
:10001000C4C00000C2C00000C0C00000BEC00000DC
:10002000BCC00000BAC00000B8C00000B6C00000EC
:10003000B4C00000B2C00000B0C00000AEC00000FC
:10004000ACC00000AAC00000E6C10000A6C00000CD
:10005000A4C00000A2C00000A0C000009EC000001C
:100060009CC000000C94200E98C0000096C00000B8
:1000700094C000000C94120D90C000008EC00000CF
:100080008CC000008AC0000088C0000086C000004C
:100090000C94040E82C0000080C000007EC00000EE
:1000A0007CC000007AC0000078C0000076C000006C
:1000B00074C0000072C0000070C000006EC000007C
:1000C0006CC000006AC0000068C0000066C000008C
:1000D00064C0000062C0000060C000005EC000009C
:1000E0005CC0000036013E0146014E0156015E0132
:1000F00066016E0179018101890191019901A101D6
:10010000A901B10166616C736574727565616463A0
:100110003161646330696F33696F32696F31696F60
:100120003076616C7565636F6E666967696F676568
:10013000747365743C0D410D11241FBECFEFD1E2E5
:10014000DEBFCDBF00E00CBF13E0A0E0B2E0E6EB05
:10015000F0E200E00BBF02C007900D92AC36B10791
:10016000D9F726E0ACE6B3E001C01D92A732B20792
:10017000E1F710E0CBE9D0E000E006C021970109EB
:10018000802FFE010E94B40ECA39D10780E0080713
:10019000A9F70E940B0D0C944A1032CFEF92FF92F8
:1001A0000F931F93CF93DF937C01EC018C010054DC
:1001B0001F4FCE010E94CE0D2C96C017D107C9F754
:1001C000F701E054FF4F88EB91E091838083D701E2
:1001D000AE53BF4F86E591E0E6E0F2E001900D926C
:1001E0000197E1F7D701A85EBD4F80E1ECE5F3E0B0
:1001F00001900D928A95E1F780EC80937C008DEA66
:1002000080937A0085E080937B00F701E85DFD4FE5
:10021000108289E08093810084E080936F008AE0FF
:100220009AE190938900809388008FEF80937E00FD
:1002300080937D00DF91CF911F910F91FF90EF9000
:1002400008950F931F93CF93DF93EC01FC01E85DBA
:10025000FD4F808190E08031910508F08DC0FC0158
:100260008827EE58FF4F8F4F0C94B40E60917800A2
:100270007091790081EC80937C0080C0609178005F
:100280007091790082EC80937C0078C06091780056
:100290007091790083EC80937C0070C0609178004D
:1002A0007091790084EC80937C0068C06091780044
:1002B0007091790085EC80937C0060C0609178003B
:1002C0007091790086EC80937C0058C06091780032
:1002D0007091790087EC80937C0050C06091780029
:1002E000709179008DE080937B0080EC80937C009E
:1002F00045C0609178007091790081EC80937C001A
:100300003DC0609178007091790082EC80937C0010
:1003100035C0609178007091790083EC80937C0007
:100320002DC0609178007091790084EC80937C00FE
:1003300025C0609178007091790085EC80937C00F5
:100340001DC0609178007091790086EC80937C00EC
:1003500015C0609178007091790087EC80937C00E3
:100360000DC0609178007091790080EC80937C00E2
:1003700085E080937B0002C060E070E0FE01E85DF4
:10038000FD4F208130E0FE01E20FF31FE85EFD4FDC
:1003900080818823B1F08901000F111F200F311FC8
:1003A000C901880F991F880F991F8C0F9D1F0E94EC
:1003B000580D0C0F1D1FF801E75DFD4F91838083E1
:1003C00009C0220F331F2C0F3D1FF901E75DFD4FC0
:1003D00071836083FE01E85DFD4F80818F3018F4EA
:1003E0008F5F808303C0C85DDD4F1882DF91CF919E
:1003F0001F910F910895603158F470E0660F771FD8
:10040000860F971FFC01E75DFD4F80819181089564
:100410008FEF9FEF08951F920F920FB60F92112446
:1004200000000F900FBE0F901F901895089508952B
:100430000895EF92FF920F931F93CF93DF93C0E045
:10044000D0E0EE24E394F12C8C01112797010C2EBF
:1004500002C0220F331F0A94E2F7C80182239323BC
:100460002817390771F4E0916E03F0916F03CE0104
:10047000880F991FE80FF91F61E0808191816DD786
:100480000DC0E0916E03F0916F03CE01880F991FAC
:10049000E80FF91F60E0808191815FD72196C83015
:1004A000D105A1F68AE00E94120EDF91CF911F9133
:1004B0000F91FF90EF900895CF93DF9388309105CF
:1004C000F8F4EC01E0917203F0917303880F991F27
:1004D000E80FF91F80819181D0D7813089F4209174
:1004E000720330917303CE01880F991FE901C80F81
:1004F000D91F61E08881998130D78AE00E94120E6D
:10050000DF91CF910895CF93DF9388309105F8F470
:10051000EC01E0917203F0917303880F991FE80FCB
:10052000F91F80819181A9D7813089F420917203CC
:1005300030917303CE01880F991FE901C80FD91FAD
:1005400060E08881998109D78AE00E94120EDF91CC
:10055000CF910895CF93DF9388309105F8F4EC01A3
:10056000E0917003F0917103880F991FE80FF91F54
:100570008081918182D7813089F4209170033091FC
:100580007103CE01880F991FE901C80FD91F61E0DF
:1005900088819981E2D68AE00E94120EDF91CF9184
:1005A0000895CF93DF9388309105F8F4EC01E09142
:1005B0007003F0917103880F991FE80FF91F808174
:1005C00091815BD7813089F4209170033091710360
:1005D000CE01880F991FE901C80FD91F60E08881FB
:1005E0009981BBD68AE00E94120EDF91CF910895C7
:1005F000CF93DF9388309105F8F4EC01E0916E031E
:10060000F0916F03880F991FE80FF91F8081918186
:1006100034D7813089F420916E0330916F03CE017D
:10062000880F991FE901C80FD91F61E0888199815E
:1006300094D68AE00E94120EDF91CF910895CF9355
:10064000DF9388309105F8F4EC01E0916E03F091AE
:100650006F03880F991FE80FF91F808191810DD7D3
:10066000813089F420916E0330916F03CE01880FA1
:10067000991FE901C80FD91F60E0888199816DD663
:100680008AE00E94120EDF91CF910895CF93DF93FD
:1006900088309105F8F4EC01E0916C03F0916D0362
:1006A000880F991FE80FF91F80819181E6D681306C
:1006B00089F420916C0330916D03CE01880F991F4E
:1006C000E901C80FD91F61E08881998146D68AE087
:1006D0000E94120EDF91CF910895CF93DF9388305F
:1006E0009105F8F4EC01E0916C03F0916D03880F33
:1006F000991FE80FF91F80819181BFD6813089F45D
:1007000020916C0330916D03CE01880F991FE90190
:10071000C80FD91F60E0888199811FD68AE00E94A6
:10072000120EDF91CF9108950895089508950895C8
:1007300008950895089508950895089508950895D1
:100740000895089508951F93CF93DF93C0E0D0E0FC
:1007500010E0E0917203F09173039E01220F331FAA
:10076000E20FF31F80819181D1D581111068C730CC
:1007700008F416952196C830D10559F7812F90E0DD
:1007800064D5EC016A81888199810E94630E8AE0B8
:100790000E94120E209729F0CE01C7D6CE010E94EA
:1007A000560DDF91CF911F91089588309105B8F4CF
:1007B000E0917203F0917303880F991FE80FF91FFE
:1007C00080819181A3D5882321F081E30E94120EBC
:1007D00003C080E30E94120E8AE00C94120E08956A
:1007E0001F93CF93DF93C0E0D0E010E0E09170035F
:1007F000F09171039E01220F331FE20FF31F8081DE
:10080000918184D581111068C73008F4169521961E
:10081000C830D10559F7812F90E017D5EC016A81D6
:10082000888199810E94630E8AE00E94120E2097AF
:1008300029F0CE017AD6CE010E94560DDF91CF91DC
:100840001F91089588309105B8F4E0917003F091FC
:100850007103880F991FE80FF91F8081918156D588
:10086000882321F081E30E94120E03C080E30E94DE
:10087000120E8AE00C94120E08951F93CF93DF930B
:10088000C0E0D0E010E0E0916E03F0916F039E01B4
:10089000220F331FE20FF31F8081918137D5811121
:1008A0001068C73008F416952196C830D10559F75D
:1008B000812F90E0CAD4EC016A81888199810E94DD
:1008C000630E8AE00E94120E209729F0CE012DD6E9
:1008D000CE010E94560DDF91CF911F91089588306F
:1008E0009105B8F4E0916E03F0916F03880F991FA2
:1008F000E80FF91F8081918109D5882321F081E3D8
:100900000E94120E03C080E30E94120E8AE00C9433
:10091000120E08951F93CF93DF93C0E0D0E010E054
:10092000E0916C03F0916D039E01220F331FE20FE3
:10093000F31F80819181EAD481111068C73008F4D7
:1009400016952196C830D10559F7812F90E07DD4B6
:10095000EC016A81888199810E94630E8AE00E947D
:10096000120E209729F0CE01E0D5CE010E94560D3F
:10097000DF91CF911F91089588309105B8F4E091EF
:100980006C03F0916D03880F991FE80FF91F8081A8
:100990009181BCD4882321F081E30E94120E03C010
:1009A00080E30E94120E8AE00C94120E08950895BE
:1009B000CF93DF9388309105A8F4682F85E793E003
:1009C0001ADD43D4EC016A81888199810E94630E0B
:1009D0008AE00E94120E209729F0CE01A6D5CE0102
:1009E0000E94560DDF91CF9108950895CF93DF9324
:1009F00088309105B0F468E0680F85E793E0FBDC90
:100A000024D4EC016A81888199810E94630E8AE076
:100A10000E94120E209729F0CE0187D5CE010E94A8
:100A2000560DDF91CF91089521E0FC0120830895B8
:100A3000CF93DF93FB01928192131DC0C081D181BE
:100A40009923D9F0FA0124918881821318C0DE011C
:100A5000119631969150892F90E001968C0F9D1F31
:100A600005C03D912491319632130BC0A817B907E8
:100A7000C1F781E007C080E005C081E003C080E0ED
:100A800001C080E0DF91CF910895CF92DF92EF9285
:100A9000FF921F93CF93DF93FC019281992309F476
:100AA0006DC00190F081E02D81E040E050E0692FC1
:100AB00070E00F2EF0E1CF2EF7E2DF2EF02DA8EE42
:100AC000B3E014E69B01281B3109EF01C20FD31FCD
:100AD00028812D3221F45195419551094AC030EDBC
:100AE000320F3A3008F045C0813031F430E0205305
:100AF0003109420F531F3DC0823089F430E020534A
:100B000031097901EE0CFF1C220F331F220F331F16
:100B1000220F331F2E0D3F1D420F531F2AC083305B
:100B200059F430E020533109129F7001139FF00CEB
:100B300011244E0D5F1D1DC0843069F430E0205338
:100B400031092A9F70012B9FF00C3A9FF00C112461
:100B50004E0D5F1D0EC08530B1F430E020533109D9
:100B60002C9D70012D9DF00C3C9DF00C11244E0D20
:100B70005F1D8F5F981708F0A5CF02C040E050E0DE
:100B8000842F952F02C080E090E0DF91CF911F91DC
:100B9000FF90EF90DF90CF900895CF92DF92EF9289
:100BA000FF920F931F93CF93DF938C01EB018A8108
:100BB000882309F484C222E04CE251E0C80138DF06
:100BC000882309F47CC2ED80FE80E114F10409F46D
:100BD00075C223E04EE251E0B701C80129DF882346
:100BE00009F474C1F701C580D680C114D10409F499
:100BF0006AC126E046E251E0B601C80119DF882348
:100C000009F4ABC0F601E580F680E114F10409F4C3
:100C1000A1C023E04EE151E0B701C80109DF8823FC
:100C200099F0F701C580D680C114D10451F0F601C6
:100C300085819681892B39F4C60127DF78DD76011D
:100C400003C074DD01C0760123E04BE151E0B70140
:100C5000C801EEDE882399F0F701C580D680C11463
:100C6000D10451F0F60185819681892B39F4C601B2
:100C70000CDF5FDD760103C05BDD01C0760123E0A0
:100C800048E151E0B701C801D3DE882399F0F701AC
:100C9000C580D680C114D10451F0F60185819681BA
:100CA000892B39F4C601F1DE46DD760103C042DD51
:100CB00001C0760123E045E151E0B701C801B8DE8B
:100CC000882399F0F701C580D680C114D10451F072
:100CD000F60185819681892B39F4C601D6DE2DDD9A
:100CE000760103C029DD01C0760124E041E151E035
:100CF000B701C8019DDE882399F0F701C580D68031
:100D0000C114D10451F0F60185819681892B39F403
:100D1000C601BBDE14DD760103C010DD01C0760123
:100D200024E04DE051E0B701C80182DE8823C1F024
:100D3000F701C580D680C114D10451F0F601858138
:100D40009681892B61F4C601A0DEFBDC760108C028
:100D5000F7DC06C0EADC760103C0760101C076014B
:100D600025E041E251E0B701C80162DE882309F4C1
:100D7000ADC0F701C580D680C114D10409F4A1C06B
:100D800023E04EE151E0B601C80152DE882399F01C
:100D9000F601E580F680E114F10451F0F701858158
:100DA0009681892B39F4C70170DEFFDC670103C02F
:100DB000CADC01C0670123E04BE151E0B601C80184
:100DC00037DE882399F0F601E580F680E114F1041E
:100DD00051F0F70185819681892B39F4C70155DEE1
:100DE00031DD670103C0FCDC01C0670123E048E19D
:100DF00051E0B601C8011CDE882399F0F601E580B8
:100E0000F680E114F10451F0F70185819681892B78
:100E100039F4C7013ADE63DD670103C02EDD01C08E
:100E2000670123E045E151E0B601C80101DE8823F6
:100E300099F0F601E580F680E114F10451F0F70134
:100E400085819681892B39F4C7011FDE95DD670105
:100E500003C060DD01C0670124E041E151E0B6015B
:100E6000C801E6DD882399F0F601E580F680E114FB
:100E7000F10451F0F70185819681892B39F4C7017E
:100E800004DE96DD670103C092DD01C0670124E046
:100E90004DE051E0B601C801CBDD8823B1F0F60189
:100EA000E580F680E114F10449F0F701858196812F
:100EB000892B61F4C701E9DD99DD08C096DD760173
:100EC00005C040DC03C030DC01C0760123E041E313
:100ED00051E0B701C801ACDD882309F4F0C0F70187
:100EE000E580F680E114F10409F4E6C025E041E272
:100EF00051E0B701C8019CDD882309F4E0C0F70187
:100F0000E580F680E114F10409F4D4C023E04EE159
:100F100051E0B701C8018CDD882369F1F701C58074
:100F2000D680C114D10439F124E049E051E0B60182
:100F3000C8017EDD882351F0F601E580F680E114DA
:100F4000F10431F0C701A1DDB7DA03C0760101C0B9
:100F5000760125E044E051E0B701C80169DD88234E
:100F600051F0F701C580D680C114D10421F0C6012B
:100F70008CDDC9DA760123E04BE151E0B701C8010D
:100F800057DD882369F1F701C580D680C114D104EB
:100F900039F124E049E051E0B601C80149DD882378
:100FA00051F0F601E580F680E114F10431F0C7015B
:100FB0006CDDD0DA03C0760101C0760125E044E0A3
:100FC00051E0B701C80134DD882351F0F701C58035
:100FD000D680C114D10421F0C60157DDE2DA7601D2
:100FE00023E048E151E0B701C80122DD882391F1F7
:100FF000F701C580D680C114D10461F124E049E035
:1010000051E0B601C80114DD882351F0F601E580F6
:10101000F680E114F104D9F0C70137DDE9DA1AC02E
:1010200025E044E051E0B601C80102DD882351F01B
:10103000F601E580F680E114F10459F0C70125DDE1
:10104000FEDA08C0C60121DDF4D9760103C07601BD
:1010500001C0760123E045E151E0B701C801E8DCB9
:10106000882369F1F701E580F680E114F10439F194
:1010700024E049E051E0B701C801DADC882351F0EF
:10108000F701C580D680C114D10421F0C601FDDC72
:10109000FDDA760125E044E051E0B701C801C8DC83
:1010A000882369F0F70185819681009741F0EDDC96
:1010B00014DB05C0BDD903C0BAD901C0B7D985E1D9
:1010C000B1D5209721F0CE0130D2CE01EFD4DF91FF
:1010D000CF911F910F91FF90EF90DF90CF900895E7
:1010E0003F924F925F926F927F928F929F92AF92B8
:1010F000BF92CF92DF92EF92FF920F931F93CF9305
:10110000DF93CDB7DEB769970FB6F894DEBF0FBE99
:10111000CDBF5C01FE01319689E1DF011D928A9508
:10112000E9F78091BE0590E00197181619060CF4B6
:101130003FC05BC01D2DF701E10FF11D20831F5F34
:10114000012F030FE02FF0E0DF01A154BA4F2C91E3
:10115000203231F0E817F90774F302C0032F1D2D78
:10116000662361F087E090E09FD4982EC92E412F2E
:10117000652D762DB1D1792C8C2C0DC087E090E0B7
:1011800093D4382E492E212F452D562D672D782D9D
:1011900077D1732C842C31E0300F8091BE0590E024
:1011A00001976D2D432F50E04817590774F01DC06B
:1011B000912CC12C792C8C2C61E030E0D12CAE012B
:1011C0004F5F5F4F7A01542E6F2C432F50E0FA018E
:1011D000E154FA4F2081203209F4C0CF4817590753
:1011E0000CF4A8CF032F1D2DBBCF692D7C2DC5017D
:1011F000D4DC1092BE058DE015D58DE013D569962F
:101200000FB6F894DEBF0FBECDBFDF91CF911F9117
:101210000F91FF90EF90DF90CF90BF90AF909F9095
:101220008F907F906F905F904F903F900895CF93F5
:10123000DF93FC012081222329F0EC0151DF109281
:10124000BE051882DF91CF910895EF92FF920F9320
:101250001F93CF93DF9300D000D0CDB7DEB7FC0152
:101260009E012F5F3F4F86E0D9011D928A95E9F7D5
:10127000FF2354F5F195E195F1098DE2898311E0A1
:1012800024C0CF01B90141D5611102C0442391F0BE
:10129000629FC001639F900D1124E81BF90BA1E030
:1012A000B0E0AC0FBD1FA10FB11D90E3960F9C9352
:1012B0001F5F402FC901B70128D59B0116161706DD
:1012C00074F41630F0F20BC010E020E137E240E099
:1012D00001E00F2EFAE0EF2EF12CF02DD2CF87E0B7
:1012E00090E0E2D37C01412FBE016F5F7F4FF4D0CD
:1012F000C70126960FB6F894DEBF0FBECDBFDF91B3
:10130000CF911F910F91FF90EF900895FC01808184
:10131000882319F0813081F01EC0A181B2812C9107
:1013200030E0C901078002C0959587950A94E2F7DD
:1013300021E0822781700895A381B4812C9130E04F
:10134000C901078002C0959587950A94E2F721E0CC
:1013500082278170089580E00895FC0180818130AA
:10136000F1F4662379F0A381B4812C9181E090E0BF
:10137000078002C0880F991F0A94E2F780958223A4
:101380008C930895A381B4812C9181E090E0078033
:1013900002C0880F991F0A94E2F7822B8C9308955C
:1013A000FC016083613001F118F06230B9F10895F9
:1013B000A581B6813C9181E090E0AC01078002C03C
:1013C000440F551F0A94E2F7242F209523232C93D2
:1013D000A381B4812C91078002C0880F991F0A94C1
:1013E000E2F7822B8C930895A581B6814C9181E020
:1013F00090E09C01078002C0220F331F0A94E2F79D
:10140000242B2C93A381B4812C91078002C0880FD8
:10141000991F0A94E2F7822B8C930895A581B681D7
:101420003C9181E090E0AC01078002C0440F551F61
:101430000A94E2F7242F209523232C93A381B481CF
:101440002C91078002C0880F991F0A94E2F7822B23
:101450008C930895EF920F93FC0181E082871386AD
:1014600076836583548343833283218307836E2D80
:10147000CF0196DF0F91EF900895FC0180810895D0
:10148000FF920F931F93CF93DF93EC01F42E052F60
:10149000122F1E821D827C836B83FB0196838583C2
:1014A000822F90E0CAD499838883112371F0AF2DE5
:1014B000B02F40E050E09D91E881F981E40FF51FE5
:1014C00090834F5F5F4F4117B0F31A83DF91CF9145
:1014D0001F910F91FF900895FF920F931F93CF9349
:1014E000DF93EC01F62E072F142F1E821D821C8223
:1014F0001B82842F90E0A1D499838883112371F0FB
:10150000AF2DB02F20E030E09D91E881F981E20F0E
:10151000F31F90832F5F3F4F2117B0F31A83DF91A2
:10152000CF911F910F91FF900895CF93DF93EC011E
:101530008881998117D5198218828D819E810097A3
:1015400009F0F3DFDF91CF910895EF920F93CF93DE
:10155000DF9380E190E0A8D29093730380937203AD
:101560008EE090E0A1D2EC01EE24E39401E026E2CB
:1015700030E048E250E067E270E06CDFE091720337
:10158000F0917303D183C0838EE090E08DD2EC01A3
:1015900003E026E230E048E250E067E270E05ADF24
:1015A000E0917203F0917303D383C2838EE090E0E5
:1015B0007BD2EC0105E026E230E048E250E067E251
:1015C00070E048DFE0917203F0917303D583C48328
:1015D0008EE090E069D2EC0107E026E230E048E2DC
:1015E00050E067E270E036DFE0917203F091730340
:1015F000D783C6838EE090E057D2EC0106E020E26C
:1016000030E042E250E061E270E024DFE0917203FA
:10161000F0917303D187C0878EE090E045D2EC0152
:1016200004E020E230E042E250E061E270E012DFEC
:10163000E0917203F0917303D387C2878EE090E04C
:1016400033D2EC0102E020E230E042E250E061E21D
:1016500070E000DFE0917203F0917303D587C487D7
:101660008EE090E021D2EC0100E020E230E042E2A6
:1016700050E061E270E0EEDEE0917203F0917303FE
:10168000D787C68780E190E00FD290937103809353
:1016900070038EE090E008D2EC0126E230E048E2F0
:1016A00050E067E270E0D6DEE0917203F0917303E0
:1016B000D183C0838EE090E0F7D1EC0102E026E216
:1016C00030E048E250E067E270E0C4DEE09172038F
:1016D000F0917303D383C2838EE090E0E5D1EC01F7
:1016E00004E026E230E048E250E067E270E0B2DE7B
:1016F000E0917203F0917303D583C4838EE090E090
:10170000D3D1EC0106E026E230E048E250E067E2A7
:1017100070E0A0DEE0917203F0917303D783C6837B
:101720008EE090E0C1D1EC0107E020E230E042E23F
:1017300050E061E270E08EDEE0917203F09173039D
:10174000D187C0878EE090E0AFD1EC0105E020E2C8
:1017500030E042E250E061E270E07CDEE091720352
:10176000F0917303D387C2878EE090E09DD1EC01A6
:1017700003E020E230E042E250E061E270E06ADE45
:10178000E0917203F0917303D587C4878EE090E0F7
:101790008BD1EC0101E020E230E042E250E061E276
:1017A00070E058DEE0917203F0917303D787C6872B
:1017B00080E190E079D190936F0380936E038EE087
:1017C00090E072D1EC0107E029E230E04BE250E01A
:1017D0006AE270E03FDEE0916E03F0916F03D18327
:1017E000C0838EE090E060D1EC0101E022E330E0C4
:1017F00044E350E063E370E02DDEE0916E03F0918E
:101800006F03D383C2838EE090E04ED1EC0107E0FA
:1018100029E031E04BE051E06AE071E01BDEE0914D
:101820006E03F0916F03D583C4838EE090E03CD1CA
:10183000EC0105E029E031E04BE051E06AE071E0C5
:1018400009DEE0916E03F0916F03D783C6838EE0CB
:1018500090E02AD1EC0103E029E031E04BE051E0D7
:101860006AE071E0F7DDE0916E03F0916F03D187DC
:10187000C0878EE090E018D1EC0101E029E031E072
:101880004BE051E06AE071E0E5DDE0916E03F0913C
:101890006F03D387C2878EE090E006D1EC0103E0AE
:1018A00023E230E045E250E064E270E0D3DDE09115
:1018B0006E03F0916F03D587C4878EE090E0F4D07B
:1018C000EC0101E023E230E045E250E064E270E048
:1018D000C1DDE0916E03F0916F03D787C68780E189
:1018E00090E0E2D090936D0380936C038EE090E0E3
:1018F000DBD0EC0102E029E230E044E350E063E3B6
:1019000070E0A8DDE0916C03F0916D03D183C0839A
:101910008EE090E0C9D0EC0100E022E330E044E347
:1019200050E063E370E096DDE0916C03F0916D03AD
:10193000D383C2838EE090E0B7D0EC0106E029E0CB
:1019400031E04BE051E06AE071E084DDE0916C034E
:10195000F0916D03D583C4838EE090E0A5D0EC01B7
:1019600004E029E031E04BE051E06AE071E072DD33
:10197000E0916C03F0916D03D783C6838EE090E015
:1019800093D0EC0102E029E031E04BE051E06AE065
:1019900071E060DDE0916C03F0916D03D187C08749
:1019A0008EE090E081D0EC0100E029E031E04BE0F6
:1019B00051E06AE071E04EDDE0916C03F0916D035F
:1019C000D387C2878EE090E06FD0EC0102E023E283
:1019D00030E045E250E064E270E03CDDE0916C0311
:1019E000F0916D03D587C4878EE090E05DD0EC0167
:1019F00000E023E230E045E250E064E270E02ADDFE
:101A0000E0916C03F0916D03D787C687DF91CF918A
:101A10000F91EF90089599DDEBD0789484E793E0EF
:101A200006DCFCCF1F920F920FB60F9211240BB65B
:101A30000F922F933F934F935F936F937F938F9367
:101A40009F93AF93BF93EF93FF9385E793E00E943B
:101A50002101FF91EF91BF91AF919F918F917F9164
:101A60006F915F914F913F912F910F900BBE0F900F
:101A70000FBE0F901F90189585E793E00C94CE0051
:101A800008950F931F93CF93DF93C9E2D4E009E643
:101A900013E0CE01A1D02C97C017D107D1F7DF9169
:101AA000CF911F910F910895C8C108955BC2089509
:101AB000CF92DF92EF92FF92CF93DF93EC01E88514
:101AC000F9858081918193838283EA85FB8580817A
:101AD0009181A281B38184839583A683B783E885AE
:101AE000F98571836083EA85FB8528813981A88522
:101AF000B9850D90BC91A02D3FD160837183828305
:101B00009383EA85FB852A813B81A885B985129656
:101B10000D90BC91A02D30D16B017C01AE81BF81B5
:101B2000248135814681578142D1C61AD70AE80AF5
:101B3000F90A80819181A281B381C80ED91EEA1E63
:101B4000FB1EC082D182E282F382EA84FB842C8174
:101B50003D81032E000C440B550BF7016081718110
:101B600082819381E5D0F7012083318342835383BF
:101B7000EA85FB8580819181A281B381072E7EE079
:101B8000B595A795979587957A95D1F7702DDF91A3
:101B9000CF91FF90EF90DF90CF900895CF93DF9398
:101BA000EC0189EC92E5998388839B838A838FEF8C
:101BB0009FE79D838C838DE49AE89F838E8384E0E6
:101BC00090E03BD19987888788E090E036D19B8769
:101BD0008A87DF91CF910895CF93DF93EC018885B9
:101BE0009985C0D18A859B85BDD1DF91CF9108951C
:101BF0001092C50080E18093C40088E98093C10001
:101C000086E08093C20008951F920F920FB60F9244
:101C100011248F938091CE008F910F900FBE0F9063
:101C20001F9018959091C00095FD06C0E0ECF0E083
:101C30000000908195FFFCCF8093C60080E008955E
:101C40001F920F920FB60F9211240BB60F922F9383
:101C50003F934F935F936F937F938F939F93AF9334
:101C6000BF93EF93FF93E091BE058091C600AE2F26
:101C7000B0E0A154BA4F8C93EF5FE093BE05F0E063
:101C8000E254FA4F80818D3021F484E793E00E9482
:101C90001405E091BE05F0E0E254FA4F8081C2DF06
:101CA000FF91EF91BF91AF919F918F917F916F9134
:101CB0005F914F913F912F910F900BBE0F900FBEF0
:101CC0000F901F901895CF93DF936623D1F0DC011E
:101CD0006150262F30E02F5F3F4F280F391FE0EC77
:101CE000F0E0C6ECD0E009C00000908195FFFCCF89
:101CF0009D919883A217B30721F0908195FFF4CFAF
:101D0000F7CF80E0DF91CF91089597FB072E16F46F
:101D1000009406D077FD08D050D007FC05D03EF4E3
:101D2000909581959F4F0895709561957F4F089587
:101D3000052E97FB16F400940FD057FD05D051D017
:101D400007FC02D046F408C0509540953095219587
:101D50003F4F4F4F5F4F08959095809570956195D7
:101D60007F4F8F4F9F4F0895EE0FFF1F881F8BBF30
:101D70000790F691E02D199405D0332312F48A1BB5
:101D80009B0B10C0A29FB001B39FC001A39F700D19
:101D9000811D1124911DB29F700D811D1124911D73
:101DA0000895F0DFB7FF0895821B930B0895B7FFE6
:101DB0003AC039D0821B930B0895AA1BBB1B51E17B
:101DC00007C0AA1FBB1FA617B70710F0A61BB70BAB
:101DD000881F991F5A95A9F780959095BC01CD0150
:101DE0000895A1E21A2EAA1BBB1BFD010DC0AA1F5C
:101DF000BB1FEE1FFF1FA217B307E407F50720F074
:101E0000A21BB30BE40BF50B661F771F881F991FEE
:101E10001A9469F760957095809590959B01AC0137
:101E2000BD01CF010895AEDFA59F900DB49F900D29
:101E3000A49F800D911D11240895CF93DF938230CC
:101E4000910510F482E090E0E0912506F0912606DD
:101E500020E030E0C0E0D0E0309711F140815181C6
:101E600048175907C0F04817590761F482819381D8
:101E7000209719F09B838A832BC09093260680932A
:101E8000250626C02115310519F04217530718F40D
:101E90009A01BE01DF01EF010280F381E02DDCCF6A
:101EA0002115310509F1281B390B2430310590F437
:101EB00012968D919C9113976115710521F0FB018C
:101EC0009383828304C09093260680932506FD01A8
:101ED000329644C0FD01E20FF31F8193919322508B
:101EE00031092D933C933AC020912306309124066A
:101EF000232B41F4209102023091030230932406F7
:101F00002093230620910002309101022115310512
:101F100041F42DB73EB74091040250910502241BB5
:101F2000350BE0912306F0912406E217F307A0F4A5
:101F30002E1B3F0B2817390778F0AC014E5F5F4F1F
:101F40002417350748F04E0F5F1F50932406409327
:101F500023068193919302C0E0E0F0E0CF01DF918E
:101F6000CF9108950F931F93CF93DF93009709F4B8
:101F70008CC0FC01329713821282009125061091C9
:101F800026060115110581F420813181820F931FEE
:101F900020912306309124062817390779F5F0930C
:101FA0002406E093230671C0D80140E050E0AE174C
:101FB000BF0750F412962D913C911397AD01211556
:101FC000310509F1D901F3CF9D01DA013383228371
:101FD00060817181860F971F8217930769F4EC0166
:101FE00028813981260F371F2E5F3F4F3183208391
:101FF0008A819B8193838283452B29F4F093260663
:10200000E093250642C01396FC93EE931297ED01E0
:10201000499159919E01240F351FE217F30771F47E
:1020200080819181840F951F029611969C938E93C7
:102030008281938113969C938E931297E0E0F0E057
:10204000D80112968D919C911397009719F0F80181
:102050008C01F6CF8D919C9198012E5F3F4F820F9E
:10206000931F20912306309124062817390769F41D
:10207000309729F4109226061092250602C013828A
:1020800012821093240600932306DF91CF911F91B3
:102090000F91089510E0CBE9D0E000E005C0802F5B
:1020A000FE0162DE2196011DCC39D10780E00807D0
:0620B000B1F7F894FFCF28
:1020B60000002706200097009500940092009000EB
:1020C6008F008D008C008A008900870085008400BF
:1020D600820081007F007E007C007B007900780012
:1020E600760075007300720070006F006E006C0061
:1020F6006B006900680066006500640062006100AC
:102106005F005E005D005B005A00590057005600F4
:1021160055005300520051004F004E004D004B0039
:102126004A0049004700460045004400420041007D
:1021360040003F003D003C003B003A0038003700BD
:102146003600350033003200310030002F002E00FB
:102156002C002B002A002900280026002500240038
:1021660023002200210020001E001D001C001B0071
:102176001A001900180017001600150013001200A7
:10218600110010000F000E000D000C000B000A00DD
:10219600090008000700060005000400030002000D
:1021A60001000000FFFFFEFFFDFFFCFFFBFFFAFF43
:1021B600F9FFF8FFF7FFF6FFF5FFF4FFF3FFF2FF75
:1021C600F1FFF0FFEFFFEEFFEDFFECFFEBFFEAFFA5
:1021D600E9FFE8FFE7FFE6FFE5FFE5FFE4FFE3FFD2
:1021E600E2FFE1FFE0FFDFFFDEFFDDFFDCFFDCFFFC
:1021F600DBFFDAFFD9FFD8FFD7FFD6FFD5FFD5FF24
:10220600D4FFD3FFD2FFD1FFD0FFCFFF01010101E1
:0C221600010101010101010101010101B0
:00000001FF
